:020000040000FA
:020000003028A6
:02000800002BCB
:10004000FF3FFF3FFF3FFF3FFF3FFF3FFF3FFF3FC0
:10005000FF3FFF3FFF3FFF3FFF3FFF3FFF3FFF3FB0
:1000600083160313003088008500FF3086000630B9
:100070009F000C140B178B1783120313003088009A
:1000800085009001101490161016A201A301A4017E
:10009000A501A601A7018E018F01AA01AC01AD0146
:1000A000AE01AF01AB01AA1406186328061C56283E
:1000B0002A1D5F28AC01AD01AE01AF0163280630F7
:1000C0008A0000268A01023086196928861D662862
:1000D000AA060430061A6F28061E6C28AA060830E5
:1000E000861A7528861E7228AA0604308A00002403
:1000F0008A0102308A0000228A0154280130A000BF
:100100006430A10000000000000000000000A10316
:080110000319A00B822808006E
:100400000511851605308A002408AA1C22082A191D
:100410002C0C002588008A017E2005308A00851278
:1004200005162508AA1C23082A192D08002588006E
:100430002A1988178A017E2005308A000512851541
:100440002608AA1C24082A192E08002588002A1923
:100450002F2AAA1C2F2A2A1888172A1C88138A01D7
:100460007E2005308A00851105152708AA1C25085D
:0E0470002A192F08002588008A017E20080026
:10060000A800030EA9000C10AB0A000000000000B7
:10061000E7308F0098308E00AA19AC0A290E8300AB
:06062000A80E280E0900DF
:1008000003102B0C0A3A031D092CAB01A20A01307C
:10081000AA0622080A3A031D0F2CA201A30A2308E4
:10082000063A031D152CA301A40A24080A3A031D45
:100830001B2CA401A50A2508063A031D212CA5019D
:10084000A60A26080A3A031D272CA601A70A27088C
:10085000023A031D312C2608043A031D312CA7014E
:10086000A60103102C0C0A3A031D382CAC01AD0A6A
:100870002D080A3A031D3E2CAD01AE0A2E080A3A95
:10088000031D442CAE01AF0A2F080A3A0319AF0129
:0208900008005E
:100A00000F3982073F3406345B344F3466346D341B
:100A10007D3407347F346F3477347C3439345E343A
:040A20007934713480
:100C00001010051565308A00051927088519260872
:100C1000051A2508851A24080025880020088A005E
:100C200086181C2E861C122E0519A70A8519A60ADD
:100C3000051AA50A851AA40A0619282E061D1E2EB5
:100C40000519A7038519A603051AA503851AA40388
:100C500024080A3A0319A4012508063A0319A50134
:100C60002708033A0319A7012708023A031D3D2E5E
:100C70002608043A0319A601412E26080A3A031948
:100C8000A6012408FF3A031D472E0930A4002508B9
:100C9000FF3A031D4D2E0530A5002708FF3A031D1E
:100CA000532E0230A7002708023A031D5E2E2608A5
:100CB000FF3A031D5D2E0330A600642E2608FF3A7E
:100CC000031D642E0930A60006187C2E061C662E15
:100CD000051D722E2708023A031D722E2608043CB9
:100CE000031CA6010310850D051F7C2E1014003077
:0A0CF000AB00A200A3000800022ED2
:02400E00323F3F
:00000001FF
